:020000040800F2
:10000000680600206D0100087501000877010008EE
:10001000790100087B0100087D0100080000000054
:100020000000000000000000000000007F01000848
:10003000810100080000000083010008850100081C
:100040008701000887010008870100088701000870
:100050008701000887010008870100088701000860
:100060008701000887010008870100088701000850
:100070008701000887010008870100088701000840
:100080008701000887010008870100088701000830
:100090008701000887010008870100088701000820
:1000A0008701000887010008870100088701000810
:1000B0008701000887010008870100088701000800
:1000C00087010008870100088701000887010008F0
:1000D00087010008870100088701000887010008E0
:1000E00087010008870100088701000800F002F876
:1000F00000F02CF80AA090E8000C82448344AAF196
:100100000107DA4501D100F021F8AFF2090EBAE893
:100110000F0013F0010F18BFFB1A43F0010318473B
:1001200040060000500600000023002400250026A1
:10013000103A28BF78C1FBD8520728BF30C148BF4A
:100140000B6070471FB51FBD10B510BD00F031F832
:100150001146FFF7F7FF00F0F7F800F04FF803B48F
:10016000FFF7F2FF03BC00F057F800000948804792
:1001700009480047FEE7FEE7FEE7FEE7FEE7FEE789
:10018000FEE7FEE7FEE7FEE704480549054A064BA1
:1001900070470000F1020008ED0000086800002030
:1001A000680600206802002068020020704770473F
:1001B0007047754600F02CF8AE4605006946534678
:1001C00020F00700854618B020B5FFF7DDFFBDE839
:1001D00020404FF000064FF000074FF000084FF0AE
:1001E000000BAC46ACE8C009ACE8C009ACE8C009FB
:1001F000ACE8C00921F007018D46704710B50446F0
:10020000AFF300802046BDE81040FFF7A8BF000014
:10021000004870470000002001491820ABBEFEE7EF
:10022000260002007047000080B500F001F880BD94
:1002300082B041F204000021C4F202000191009159
:1002400050F8041C41F4803140F8041C50F8041CA0
:1002500001F400310091019901310191009919B91E
:100260000199B1F5A06FF1D150F8041C890354BF76
:100270000021012100910099012936D142F20001AB
:10028000C4F202010A6842F010020A600A6822F011
:1002900007020A600A6842F002020A60016801600F
:1002A00001680160016841F480610160016821F426
:1002B0007C110160016841F4E811016050F8041CF0
:1002C00041F0807140F8041C50F8041C8901FBD5F2
:1002D000016821F003010160016841F00201016041
:1002E000016801F00C010829FAD102B07047000042
:1002F00080B541F20000C4F202000168002241F022
:10030000010101604168CFF6FF02114041600168C0
:100310004FF6FF72CFF6F66211400160016821F4DA
:1003200080210160416821F4FE0141604FF41F010A
:100330008160FFF779FF4EF60850CEF200004FF0D3
:100340000061016080BD000041F21800C4F20200AB
:10035000016842F2084641F0040101600168C4F2FC
:10036000010641F40071016040F60001C4F2010190
:100370000A6822F00F020A6050F8141C41F4004190
:1003800040F8141CB06840F00700B0600020F06234
:10039000306840F001003060306840F008003060A4
:1003A0003068000701D500BFFAE7306840F004006C
:1003B000306000BF3068400701D500BFFAE7306801
:1003C00040F2600740F002003060306843F233389A
:1003D00020F40060306030684FF2000540F001000A
:1003E00040F264043060C2F20007C4F25308C4F261
:1003F0007F55C2F2000400E000BF56F8080C8007E9
:10040000FAD5706C3880388800F0CAF8414600F0A0
:10041000DBF8294600F002F82060EEE74FF47F0C8D
:100420001CEAD0121EBF1CEAD11392EA0C0F93EA09
:100430000C0F00F0858090EA010F48BF42F48072F3
:1004400040F4000C41F400002CF07F4120F07F408C
:1004500000B5A2EB030281420FF2081CACEB504E38
:100460009EF800E0C0F100004FEA4E0E00FB0EFCCB
:1004700038BF49004FEA2C1C0CFB0EF34FEACE1E8E
:100480000EEB635E4FEA112C0EFB0CFC4FEAC12110
:100490004FEA1C5300FB031102F5FA024FEA112C3C
:1004A0000EFB0CFC4FEA01314FEADC4C00FB0C1157
:1004B00042EB2242C14228BF09184CEB03335DF8DE
:1004C00004EB10EB410143EBC250B2F57C0F38BF97
:1004D000704729D512F0F00F1CBF00F1C04000F0AA
:1004E00000407047008182838485868788898B8C51
:1004F0008D8E8F919293959697999A9C9D9FA0A28D
:10050000A3A5A7A8AAACAEB0B2B3B5B7B9BCBEC0DC
:10051000C2C5C7C9CCCED1D4D7D9DCDFE2E6E9EC7D
:10052000F0F3F7FAFE0000004FEA400C0CF1807C7B
:10053000BCF17E4F28BF7047B0F1C04000F00BB94E
:100540000CEAD11390EA010F48BF42F48072624571
:1005500038BF634507D213F47F0F16D080EA01003D
:1005600000F00040704710B500F0AFF8097EFC3E87
:1005700000F005B880EA010000F00040704780EA12
:10058000010000F0004000F0E6B812F47F0F04BF55
:100590000248704780EA010000F0DDB80000C07F2B
:1005A000B0FA80F310FA03F2C3F19D030AD0D90523
:1005B00001EB1220530638BF704700F1010008BF5D
:1005C00020F00100704700004FF47F0C1CEAD012AD
:1005D0001EBF1CEAD11392EA0C0F93EA0C0F00F035
:1005E000478090EA010F48BF42F480724FF0004C00
:1005F0004CEA00204CEA012102EB0302A0FB0113AC
:10060000A2F50002002918BF43F001035B0028BFD8
:100610004FEA330342EB22425FEA132C4CEBC25009
:100620002EBFBCEB436FB2F57C0F70474FEA036CF3
:10063000BCF1004F08BF20F00100B2F57C0F38BFBD
:1006400070470BD582F0FF0212F5803FC8BF70479C
:1006500000F1C040D8BF00F00040704700F5000C2A
:100660005FEA4C0C48BF7047B0F1C04000F073B86F
:100670000CEAD11390EA010F48BF42F48072624540
:1006800038BF634504D280EA010000F000407047A3
:1006900010B500F01AF800BF8900013E00F007B85D
:1006A00000F009B85FEA410C5FEA1C6C08D080EAF0
:1006B000010000F050B85FEA400C5FEA1C6CF6D114
:1006C0004FF00040A0F5800070470EF1020E2EF0B2
:1006D000030E5EF8044B244204D44FEA4102B2F107
:1006E0007F4F11D84FEA4003B3F17F4F0CD80ED1A2
:1006F0004FEAD07C0CEB4C0C0CF1020CB2F17F4FAA
:1007000008BF4CEBD17C04E04FF0080C01E04FEA4D
:10071000D17C0CEB4C0324FA03F404F00704B4F18D
:10072000040C06D20EEB840CBDE810404CF0010C1A
:100730006047DFE80CF0070802024FF00040A0F528
:10074000800010BD0846420018BFD2F1807288BFF9
:1007500000F0004010BDFF2141EAD050C0057047B5
:10076000700700080000002068060000280100084B
:040000050800016D81
:00000001FF
